:1000000000800020BD01000085290000512900006A
:1000100051290000512900005129000051290000F8
:1000200051290000512900005129000085290000B4
:100030008529000051290000852900004129000080
:1000400085290000852900008529000085290000F8
:1000500085290000852900008529000085290000E8
:1000600085290000852900008529000085290000D8
:1000700085290000852900008529000085290000C8
:1000800085290000852900008529000085290000B8
:1000900085290000852900008529000085290000A8
:1000A0008529000085290000852900008529000098
:1000B0008529000085290000852900008529000088
:1000C0008529000085290000852900008529000078
:1000D0008529000085290000852900008529000068
:1000E0008529000085290000852900008529000058
:1000F0008529000085290000852900008529000048
:100100008529000085290000852900008529000037
:100110008529000085290000852900008529000027
:100120008529000085290000852900008529000017
:100130008529000085290000852900008529000007
:1001400085290000852900008529000085290000F7
:1001500085290000852900008529000085290000E7
:1001600085290000892000008529000085290000DC
:1001700085290000852900008529000085290000C7
:1001800085290000852900008529000085290000B7
:1001900085290000852900008529000085290000A7
:1001A0008529000085290000852900008529000097
:1001B000852900008529000085290000564B4CF256
:1001C000205210B51A804DF628121A8000BF00BFC9
:1001D00002F0DCFB514B4FF010621A60504A9A60FB
:1001E000504ADA60A3F53043203B1A6812F480725B
:1001F00004D14D490A604FF4A8521A604B4B1A784B
:10020000110703D51A7842F008021A70484B2A22C7
:100210001A700023474A48499818884204D247492F
:10022000595899500433F5E7454A464B9A424FF0E6
:10023000000302D242F8043BF7E74349434A5958C6
:1002400099500433B3F5DE7FF7D1414B802103F899
:10025000011B40498B42F9D13F4B1A603F4B0A22A8
:100260001A70A3F5805324225A70A0221A709A792A
:100270009207FCD59A79D406FCD4394B9A7902F0CE
:100280000C02082AF9D105221A7143225A719A796F
:100290009006FCD5324B9A795106FBD5314A4FF086
:1002A000817111600521516020221A702C4B9B79BD
:1002B00003F00C030C2BF9D12B4B2C4A1A602C4B5E
:1002C0002C4A1A6000225A60072243F8042C2A4A5A
:1002D000C3F80C2D62B602F095FA134B1B68DA07CF
:1002E00005D5264802F0FEF9254B264A1A60264B12
:1002F0001B785B0609D5224C224A2368934204D11D
:100300001E4802F0EFF90023236002F0DDFB00F04D
:100310000DFA02F0CDFAFEE70E20054030800440D1
:10032000823F04000100002B14D0034002D007409C
:1003300000E007406087FF1F9088FF1F38360000ED
:100340009088FF1F1CCDFF1F000000000082FF1FD0
:1003500000E400E05FE400E008ED00E0005006404B
:10036000004006404480044004800440C010050062
:1003700014E000E03F1901000000202048F1E65B96
:100380001CE00340A5C3945A00F00740FFFFFFFFA5
:10039000FFFFFFFFFFFFFFFFFFFFFFFFFFFFFFFF6D
:1003A000FFFFFFFFFFFFFFFFFFFFFFFFFFFFFFFF5D
:1003B000FFFFFFFFFFFFFFFFFFFFFFFFFFFFFFFF4D
:1003C000FFFFFFFFFFFFFFFFFFFFFFFFFFFFFFFF3D
:1003D000FFFFFFFFFFFFFFFFFFFFFFFFFFFFFFFF2D
:1003E000FFFFFFFFFFFFFFFFFFFFFFFFFFFFFFFF1D
:1003F000FFFFFFFFFFFFFFFFFFFFFFFFFFFFFFFF0D
:10040000FFFFFFFFFFFFFFFFFFFFFFFFFEFFFFFFFD
:1004100010B5054C237833B9044B13B10448AFF33E
:1004200000800123237010BD9088FF1F0000000092
:100430003836000008B5064B1BB106480649AFF335
:1004400000800648036813B1054B03B1984708BD07
:1004500000000000383600009488FF1F9088FF1FBE
:100460000000000046F26000D0F800D0D0F804F0A0
:100470007047FFFF1A4B1B494FF400721A600A6065
:10048000194A116821F4802111604FF400021A60AA
:100490004FF080721A604FF000721A604FF0806265
:1004A0001A604FF000621A60104B1A681006FBD4F5
:1004B0001A68510603D51A6842F040021A600C4BC4
:1004C0001A68120603D51A6842F080021A60094BB6
:1004D000A0221A70084A002313605360704700BFBF
:1004E00088E100E088E200E03480044024B00B4062
:1004F00000B00B40004006404480044008B560B1A5
:1005000000210A46C82001F07FFB002102460B486B
:1005100001F05EFB094801F0C1FA0020014601F03C
:10052000C9FC0120002101F0C5FC4FF4FA6002F083
:1005300053F9034B034A1A6008BD00BFD088FF1F60
:100540000CED00E00400FA05002110B50A46C820B1
:1005500001F05AFB0C4C02460021204601F038FB0A
:10056000204601F09BFA0020012101F0A3FC0120AC
:10057000014601F09FFC4FF4FA6002F02DF9034BA5
:10058000034A1A6010BD00BFD088FF1F0CED00E0C9
:100590000400FA0510B5094C204601F072FA9620C5
:1005A0000146024601F030FB00210246204601F0E0
:1005B0000FFB2046BDE8104001F070BAD088FF1F45
:1005C000FFF7E8BF30B591B00546002168464022EC
:1005D00002F0B0FA0023EC5C44B1FF2C06BF00220D
:1005E0000DF803200DF803400133F4E72146684677
:1005F00001F0D8FB68462146402202F09BFA11B078
:1006000030BD30B50023D41E9C420DDDCC58240EE5
:10061000C454CD58C4182D0C6570CD582D0AA57042
:10062000CD58E5700433EEE730BDFFFF70B50446EA
:1006300090B046F26005234829464FF48042FFF708
:10064000E0FF46F260039D4204D120461D494FF46D
:1006500080420DE01C4A234604F1400153F8040B8C
:1006600042F8040B8B42F9D11649204644F240026D
:10067000002301F027F8154B05F580459D42DAD19E
:1006800002250026284601F001FC00AB2B44013571
:10069000422D03F8020C0644F4D1B6F57F5F01D178
:1006A00001200CE06846214600F022FE30B908A87F
:1006B00004F1200100F01CFE0028F1D0002010B051
:1006C00070BD00BFE588FF1FE5C8FF1F60A00300E5
:1006D00008B546F25F03984215D90B4B1A781206FB
:1006E000FBD530221A70094AC1B21170C0F307213C
:1006F0005170C0F3074009219070D17072B618464E
:1007000002F08EFF62B608BD000002400400024005
:1007100010B546F260042046FFF7DAFF024B04F5FD
:1007200000649C42F7D110BD60B00300164B00B5C9
:1007300043F682721A8040F24312C3F8D82F03F5B1
:10074000362303F6DC73002091B0186001F09EFBA5
:10075000012815D00D4B1B68DB0611D546F260034E
:100760001B6801330CD072B66846FFF75FFF20B1FB
:10077000FFF780FEFFF776FE02E062B6FFF7C8FFE4
:1007800011B05DF804FB00BF3880044010F00F404A
:1007900046F25F03984210B521D9114B1A78120620
:1007A000FBD530221A700F4A0C7814704C785470B4
:1007B0008C789470C978D170C1B202F8041CC0F36F
:1007C000072102F8031CC0F30740062102F8020CBF
:1007D00002F8011C72B6184602F022FF62B610BD84
:1007E0000000024008000240F7B50E461746C41C40
:1007F0000025FB1EAB4206EB050004F1040414DDEA
:1008000014F8062C14F8053C120442EA032214F8EA
:10081000043C1A4314F8073C02A942EA036241F877
:10082000042DFFF7B5FF0435E3E703B0F0BDFFFF8C
:100830002DE9F04F90F800A0334B0AF00F0B4FEA70
:100840001A1A14460AF1FF381A784FEAC80891B00C
:1008500006465FFA88F81F460AB9FFF759FF3B784A
:100860002A4F4FEAC8210BF1FF3201F5C0419342F4
:1008700046F2600901F16001DFF88C8024D1621E2C
:10088000701C4946FFF7B0FF00233B60204B01225C
:100890001A70D9F80030013301D11E4828E01E48F3
:1008A000FFF790FE6846FFF7C1FE022400AB234429
:1008B000204613F8021C013401F0FCFA422CF5D159
:1008C0000020FFF71BFE17E0144A91420FD8CAEB35
:1008D0000B0A53450BD106F14100A4F14102FFF789
:1008E00083FF98F80030013388F8003004E00C48AA
:1008F000FFF768FEFFF728FE00230A483B60FFF77A
:1009000061FE11B0BDE8F08FE488FF1F78CBFF1FB8
:10091000CC88FF1FD42C0000EF2C0000EFAF0300A9
:10092000062D0000342D00002DE9F041424CADF5BC
:10093000844D9EB02046002101F006FA002876DDA5
:100940002379F42B6CD13D483D4DFFF73BFE667992
:10095000FF2E13D12A6844F22F239A4216D8394920
:10096000A31D11443E3453F8040B41F8040BA34279
:10097000F9D11B780B7039322A6058E0D5F8008025
:1009800044F22E2308F1FF329A4201D92E4841E069
:10099000392EFBD82B4F324607EB0800A11D01F082
:1009A00039F92A4B1B7846442E605BB128483946FA
:1009B00000F09EFC30B1274807F1200100F098FCC0
:1009C000002831D1244B224A03F1200153F8040BB3
:1009D00042F8040B8B42F9D1204B1E4A03F120014F
:1009E00053F8040B42F8040B8B42F9D12A681C4CD3
:1009F0000023CDE900231B4B029304A82146114A92
:100A000000F0C8FE28B904A8D4E90023FFF710FFBE
:100A10000DE01548FFF7D6FD0120FFF76FFD06E05A
:100A20001248FFF7CFFD02E0114B01221A700DF5BD
:100A3000844D1EB0BDE8F0817CCBFF1F492D000026
:100A400078CBFF1FE588FF1F5D2D0000E488FF1FA6
:100A500058CBFF1FAC88FF1F2689FF1F4689FF1F49
:100A600050CBFF1F942C0000812D0000A82D00000A
:100A7000CC88FF1F10B5212001F064FEC8B146F2FA
:100A800060031B68013314D0012001F0FFF9012835
:100A9000044613D10020014601F00CFA2046002143
:100AA00001F008FA064B1B7813B9FFF73DFFF9E791
:100AB00010BD0120014601F0FDF9E5E710BD00BFC2
:100AC000CC88FF1F10B5074C012120460A220323C2
:100AD00000F09CFF20460449044ABDE8104001F0A4
:100AE000DDBF00BFD088FF1F6B1A00006C87FF1F9F
:100AF00030B500240B19D3E9002305190834802CE4
:100B0000C5E90023F6D130BD2DE9F74F01464FF07E
:100B10000009D1E9004514F5803445F10005220CA7
:100B200042EA0542B9F10E0FE1E802454FEA2543DA
:100B3000CCBF4FF000084FF0010812F1FF3443F131
:100B4000FF35CDE90045009D2524A5FB0467019DE7
:100B500004FB0577B9F10F0409F1010CD4F1000988
:100B600059EB0409A6FB094509FB0755DDE90067B8
:100B700008FB0CF8A41900EBC80845EB0705D8E9F9
:100B80000067A41945EB0705C8E9004551E902458E
:100B90004FEA034B4BEA124B4FEA024AB4EB0A040A
:100BA00065EB0B05BCF1100F41E9024501D0E146B0
:100BB000AFE703B0BDE8F08F2DE9F0415242D31703
:100BC0004FF0000C00EB0C08D8E90067D1E90045B4
:100BD00074407D4014401D4066406F40C8E9006786
:100BE000D1E900670CF1080C74407D40BCF1800F26
:100BF000E1E80245E6D1BDE8F081FFFF2DE9F04FC5
:100C00008046C7B000200B1826ACD3E9002304446B
:100C100008308028C4E90023F5D126A8FFF774FF27
:100C200026A8FFF771FF26A8FFF76EFF4FF0020915
:100C3000DDE926233C484FF0FF31121846AE43EB66
:100C4000010366E94023012726A800EBC703D3E987
:100C50000001364AB6F802A012184FF0FF3343EBFA
:100C60000103716801244AEA014A4FEA214B002539
:100C70000AEA04000BEA0501121A63EB0103C6E954
:100C800002230137328800230F2FE6E80223DBD14D
:100C900044A9DDE92223D1E9006725484FF0FF315F
:100CA00036184FEA124047EB010740EA0341181497
:100CB00000910190DDE9000104400D40361B67EB17
:100CC00005074FF6FF70002102400B40310CCDE9C3
:100CD000222341EA0742029202F001023B1426A8B5
:100CE00006A9C2F10102CDE924670393FFF764FF6F
:100CF000B9F101099CD124A9F1E90223160A46EAB7
:100D0000036708F8092008EB0900049709F10209B4
:100D10001C129DF810600594B9F1200F4670EBD1BC
:100D200047B0BDE8F08F00BF1300FFFF0100FFFFD9
:100D30000180FFFF2DE9F0414FF0000C8846A0F143
:100D4000080108EB0C0618F80C4076783202A4185B
:100D50004FF000054FF000030CF1020C45EB0305CA
:100D6000BCF1200FE1E90245EBD1D0E91E2347F6A3
:100D7000FF74002522402B40C0E91E23BDE8F0810E
:100D8000F0B50023CD18D418D5E90067D4E90045A3
:100D900000EB030CA41903F1080345EB0705802BB6
:100DA000CCE90045EED1F0BDF0B50023CC18D61843
:100DB000D4E90045D6E9006700EB030C0833A41B17
:100DC00065EB0705802BCCE90045EFD1F0BD2DE99F
:100DD000F04FBFB08046ADF108030DF1F00C0024D8
:100DE0000025E3E902456345F9D14FF0000E01EB20
:100DF0000E0300A8D3E9004570440023D718D0E9BA
:100E000000AB7F68D65804FB07F906FB0599A6FBE3
:100E1000046716EB0A064F4403F1080347EB0B0780
:100E2000802BE0E80267E9D10EF1080EBEF1800FD9
:100E3000DDD11EAC54E91E010834226865682626FF
:100E4000A2FB0623121806FB053343EB010364459E
:100E500044E92023EED100213EAB0B4453E93E236D
:100E600008EB010008318029C0E90023F4D1404695
:100E7000FFF74AFE40463FB0BDE8F04FFFF744BEE3
:100E80000A46FFF7A4BFF0B50023A1B006460F46FF
:100E9000F91800AAD1E900451A440833802BC2E9A9
:100EA0000045F5D1FD2468466946FFF7E9FF022CAD
:100EB00006D0042C04D0684669463A46FFF787FFFF
:100EC00014F1FF34EFD2002100AB0B44D3E900232F
:100ED000701808318029C0E90023F5D121B0F0BD98
:100EE0002DE9F0410446ADF5906D0D4600F1800608
:100EF00005F18007684631462246FFF755FF80A876
:100F000039462A46FFF750FF6846694680AAFFF730
:100F10005EFF20A821463246FFF732FF80A829460F
:100F20003A46FFF72DFF20A8014680AA04F5C077B6
:100F3000FFF74DFF40A8394605F5C072FFF747FFA0
:100F400040A8014604F580781E4AFFF740FF60A8DC
:100F5000414605F58072FFF73AFF60A80146024658
:100F6000FFF70EFFA0A820A96A46FFF71DFFC0A843
:100F700060A940AAFFF718FFE0A860A940AAFFF700
:100F8000FFFE0DF5806020A96A46FFF7F9FE2046B6
:100F9000A0A9C0AAFFF71BFF30460DF58061E0AAAB
:100FA000FFF715FF4046E0A9C0AAFFF710FF38463B
:100FB000A0A90DF58062FFF70AFF0DF5906DBDE861
:100FC000F08100BF003000002DE9F04F20228FB0EB
:100FD0000023CDE90423844601F1F807049B6B4EFE
:100FE00001EBC30400204FF000084FF000093D184A
:100FF000D5E900AB18EB0A0249EB0B03CDE9062358
:10100000D4F8FC30D4F8F8201B0143EA12730393A0
:10101000120133180292DDF808805B683258DDF85F
:101020000C9008FB03F302FB093AA2FB082353448C
:10103000DDE906ABBAEB020A6BEB030B1AF1800297
:101040004BF100034FEA12284FEA2329CDE906AB02
:1010500048EA03684FEA092B4BEA18624FEA082373
:1010600009920893DDE908ABDDE906230830B2EB0D
:101070000A0263EB0B03A028C5E90023B7D1D4E92A
:10108000262312EB080243EB0903C4E926230022BE
:101090000023C4E93E23DDE9042312F1FF3243F1CA
:1010A000FF33CDE904231343A7F1080796D1DDE907
:1010B0000423374E01F580770846D1F8F840D1F87F
:1010C000FC50240944EA0574009456F8084FDDF8F2
:1010D00000802D1101957568DDF8049008FB05F579
:1010E00004FB0958DDF80090D0E900ABA4FB0945EA
:1010F0004544141B63EB050514EB0A0445EB0B0593
:10110000220A42EA05622B12E4B20025E0E8024519
:10111000B842D2D1DFF87C908846A9F5807050F8AB
:10112000086F4768D8E90045574306FB037AA6FBDA
:1011300002675744A41B65EB07054845E8E80245EC
:10114000EDD10C4620200021256863684FEA152A5E
:101150004AEA036B1B120B93CDF828B0D4E90223A3
:10116000DDE90A67921943EB0703E4E90223C0EBC8
:101170000C0310F1FF3041F1FF3150EA010783F811
:101180002050E1D10FB0BDE8F08F00BF80330000E8
:10119000783300007834000010B5ADF5007DADF176
:1011A00008040021425C013100234029E4E90223C4
:1011B000F8D100230022C2540133402BFAD16946F2
:1011C000FFF702FF0DF5007D10BD30B5E9B0044614
:1011D0000D4648A801F58071FFF755FE08A829467D
:1011E00048AAFFF7F4FD48AA28A805F18001FFF7F7
:1011F000EEFD204628A9FFF701FD684608A9E57F16
:10120000FFF7FCFC9DF8003003F0010385EAC315ED
:10121000E57769B030BDFFFF2DE9F84304460F467E
:101220001E499146FFF764FC04F180001C49FFF75A
:101230005FFC04F580701A49FFF75AFC04F5C07092
:101240001649FFF755FCFF25EB10002619F803801F
:1012500005F0070348FA03F808F00108A019B919C6
:1012600042468036FFF7A8FCB6F5007FF6D1384637
:101270002146FFF735FE20462146FFF731FE0026C6
:10128000A019B91942468036FFF796FCB6F5007FE3
:10129000F6D115F1FF35D7D2BDE8F883C0CBFF1FDB
:1012A000C02E0000F0B50F4D0F4CADF5017D074687
:1012B0000E4668462946FFF71BFC20A82146FFF78B
:1012C00017FC40A80949FFF713FC60A829462246ED
:1012D000FFF77DFD384669463246FFF79DFF0DF565
:1012E000017DF0BDC02D0000402F0000C02E000089
:1012F00030B500221346CD5CC45C01336C40202B1A
:1013000042EA0402F7D1013AC2F30020013830BDAD
:101310002DE9F04FF5B0CDE90A2323912290002169
:10132000229E00200E44002200231D0245EA126581
:101330001402325C01300023082842EA040243EA26
:101340000503F2D174A8084440E9302324A80844D6
:1013500008314029C0E90023E2D1DDE90A01CDE9E5
:101360000001DDE90001002908BF8028C0F0888164
:1013700000210A9A239C009B1444E41A0C44002088
:10138000002200231D0245EA126617020396029707
:10139000DDE90289225C01300023082842EA0802C4
:1013A00043EA0903EED174A808440831802940E9D2
:1013B0002023DED1B1480D900027002374A91944E1
:1013C00034AA51E930011A440833402BC2E9000124
:1013D000F4D14CA9D1E90023910C41EA83310E915B
:1013E000990C41EA82310F91910B41EA83411091AE
:1013F000990B41EA82411191D10541EA53211291A1
:10140000D90541EA5221DDE91089DDE90E45139144
:10141000DDE912AB84EA080485EA090550A84EA963
:10142000D0E9008984EA0A0485EA0B05D1E900AB1A
:1014300028EA02080AEA020052AA0BEA0301D2E9EA
:1014400000AB29EA030980EA0800241881EA0901AF
:1014500045EB010507F00F061AEB040A74AC04EB28
:10146000C60353E920234BEB050B0D9D1AEB020A33
:101470004BEB030BF5E9022344A81AEB020A46AC36
:101480000D9548ADD5E900894BEB030BD0E900235E
:10149000D4E9000189EA01051D4001EA09014D4036
:1014A000910741EA93011491990741EA920115913C
:1014B000110F41EA03111691190F88EA000441EA5D
:1014C000021100EA0800144017914FEA426CDDE96E
:1014D000168944404CEAD31CDDE914015B0643EA5B
:1014E000D2131993CDF860C080EA080081EA09019F
:1014F000DDE9188980EA0800001981EA090141EB59
:10150000050110EB0A0041EB0B0142AAC2E9000100
:10151000DDE93A2312EB0A0243EB0B03CDE93A2350
:1015200032AA0023013374AC03F0070104EBC101BC
:10153000F2E90245082B41E93045F3D10F2E05D0E1
:101540000137502F7FF439AF00247BE00DF5A47CE8
:10155000002606F1090374AD03F00F0305EBC30386
:10156000013653E9208906F00F0305EBC30353E965
:101570002001040A44EA01641A940C0A44EA006453
:101580001B94440844EAC1741C944C0844EAC07497
:1015900006F10D031D9403F00F03DDE91CAB05EB11
:1015A000C303DDE91A4585EA0B054FEAD01B84EA3F
:1015B0000A044BEA416A4FEAD11BCDF810A0CDF8DE
:1015C00014B0DDE904ABFCE9020153E9202384EA0D
:1015D0000A0414EB080485EA0B0545EB09052418F9
:1015E00045EB0105D10041EA53711E91D90041EA52
:1015F00052711F91D10C41EA43312091D90C41EA3B
:1016000042312191DDE92089DDE91E0181EA0901EC
:101610004FEA921949EA836A4FEA931BCDF818A062
:10162000CDF81CB080EA0800DDE9068980EA0800F0
:10163000001981EA090141EB0501102ECCE90001F6
:1016400087D17DE744AE24AD26442544D5E9000189
:10165000D6E900230834121843EB0103402CC6E9F5
:101660000023C5E90023EDD1DDE900ABBAF1800A22
:101670004BF1FF3BCDE900AB73E600BFF830000053
:10168000DDE90A237F201040002424AB2344229E5E
:10169000D3E9002326440725170A47EA03684FEADF
:1016A00013297255CDF82080CDF8249015F1FF351F
:1016B000DDE90823F0D20834402CE6D175B0BDE84E
:1016C000F08F00BF2DE9F0431D46D1B0804689461A
:1016D000144600232E4A9A5C0DF803200133402B58
:1016E000F8D1494622462B466846FFF711FE7F2275
:1016F0002240A14400232B401146C2EB09094FF0C0
:10170000000C0DF1400E00200CF80E000CF1010C45
:10171000BCF5807FF5D1884205D019F800C00EF8DD
:1017200000C00130F7E7002B08BF702A0EEB020162
:1017300034BF80224FF4807280200EEB020C0870C0
:101740006146680F01F8090CA2F1080CE90041EAB2
:101750005471E0000023F4440724060A0CF8040046
:1017600046EA01660F0A14F1FF3430463946F4D2D6
:1017700068467146FFF7CCFD00231DF8032008F8EA
:1017800003200133402BF8D1002051B0BDE8F08395
:10179000C02F00002DE9F047ADF5E86D0DF5EC63C5
:1017A000D3E9004591464FF0FF334FF0FF32002D53
:1017B00008BF402C80468A46DDF86867C1E90023EF
:1017C00002D24FF0FF3015E10DF5C8608B49FFF7ED
:1017D0008FF90DF5B8603146FFF7ACFA30A80DF57A
:1017E000B861FFF74DFB50A830A9854AFFF7EFFA23
:1017F00030A801460DF5C862FFF7D6FA50A8024698
:101800000DF5C861FFF7BCFA70A850A9FFF738FBC7
:1018100090A870A9FFF734FBB0A890A970AAFFF7B1
:10182000D6FA10A8B0A930AAFFF7D1FA10A801463D
:1018300050AAFFF7CCFA002110AB0B44D0A8D3E993
:101840000023084408318029C0E90023F4D1FA2795
:10185000D0A80146FFF714FB012F04D0D0A8014601
:1018600010AAFFF7B4FA17F1FF37F1D20021D0AB7D
:101870000B4410A8D3E90023084408318029C0E9AB
:101880000023F4D110A8014630AAFFF7A0FA10A84F
:10189000014650AAFFF79BFA10A8014650AAFFF78D
:1018A00096FA50AA0DF5A86010A9FFF790FAD0A8F3
:1018B0000DF5A861FFF7E4FAD0A8014650AAFFF79A
:1018C00086FA6846D0A9FFF799F908A830A9FFF76A
:1018D00095F9684608A9FFF70BFD28B10DF5A8603A
:1018E0000146484AFFF773FAD0A80DF5A861FFF743
:1018F000C7FAD0A8014650AAFFF769FA6846D0A9EE
:10190000FFF77CF908A830A9FFF778F9684608A91D
:10191000FFF7EEFC00287FF454AF08A80DF5A8618E
:10192000FFF76CF99DF82030F27F03F00103B3EB71
:10193000D21F05D10DF5A86033490246FFF734FAEE
:101940000DF5B8620DF5D8600DF5A861FFF73FFA07
:1019500022460023934205D019F8031008F803101B
:101960000133F7E70023F15C08EB03020133202B7E
:1019700082F82010F7D12B4622464146B0A8FFF747
:10198000A1FEB0A8FFF708FCB0AAD0A80DF5A86189
:10199000FFF742FC0DF5A86009F12001FFF782FC7A
:1019A000D0A80DF5A861FFF79BFA90A8D0A9FFF782
:1019B0000CFCB4F14006484690A945F1FF37FFF70B
:1019C00097FC403C08B9034608E00023A3423FF4DB
:1019D000F8AE002208F803200133F7E7A34207D04E
:1019E00009EB030292F8402008F803200133F5E7E1
:1019F000CAE900670DF5E86DBDE8F087C02E00006C
:101A000080300000402E0000C0CBFF1FF8B50180E1
:101A1000044601EB41018EB20027468002714771F6
:101A2000E373076130461D4601F074F8A06018B1F9
:101A30003946324601F07EF815F0010005D0012349
:101A400023730023637302230CE005F0040505F003
:101A5000FF01012202231DB122736373A07302E010
:101A600021736273A3732046F8BD10B504468068E5
:101A700008B101F057F82079002100F071FE2046EE
:101A800010BD10B504460121007900F069FE2079EF
:101A90000021BDE8104000F035BEFFFFF8B58368B7
:101AA0000446002B00F08A8000F076FE2369C01AFD
:101AB0003128F9D972B6424B2179A26853F8310026
:101AC000404B6788196841F0807119603E4B196876
:101AD00041F001011960E37B13F0020F3B4B174407
:101AE000196837D05A31BA422BD212F801CB0825E7
:101AF0008026D3F800E0C1EB0E0EBEF1590FF8D9E5
:101B000032494FF0010E16EA0C0F096880F880E0A8
:101B100007D0D3F800E0C1EB0E0EBEF1380FF8D9B4
:101B200006E0D3F800E0C1EB0E0EBEF1110FF8D9BC
:101B30004FF0010E013D80F800E126FA0EF6D8D1F3
:101B4000D1E71A68521A592AFBD962B600F024FE6E
:101B50002061F8BDB431BA422BD212F801CB08256E
:101B60008026D3F800E0C1EB0E0EBEF1B30FF8D91A
:101B700016494FF0010E16EA0C0F096880F880E054
:101B800007D0D3F800E0C1EB0E0EBEF1550FF8D927
:101B900006E0D3F800E0C1EB0E0EBEF1230FF8D93A
:101BA0004FF0010E013D80F800E126FA0EF6D8D183
:101BB000D1E71A68521AB32AFBD9C6E7F8BD00BFAD
:101BC00000350000FCED00E0001000E0041000E033
:101BD00003888B4230B516D94379C2F30745C2F367
:101BE0000724D2B22BB15D435C435A432D0A240A29
:101BF000120A836801EB41011944037BCD54437BF6
:101C0000CC54837BCA5430BD42EA012242EA0040F0
:101C10007047FFFF844641EA000313F003036DD1D0
:101C2000403A41D351F8043B40F8043B51F8043B9F
:101C300040F8043B51F8043B40F8043B51F8043BA6
:101C400040F8043B51F8043B40F8043B51F8043B96
:101C500040F8043B51F8043B40F8043B51F8043B86
:101C600040F8043B51F8043B40F8043B51F8043B76
:101C700040F8043B51F8043B40F8043B51F8043B66
:101C800040F8043B51F8043B40F8043B51F8043B56
:101C900040F8043B51F8043B40F8043B51F8043B46
:101CA00040F8043B403ABDD2303211D351F8043BE6
:101CB00040F8043B51F8043B40F8043B51F8043B26
:101CC00040F8043B51F8043B40F8043B103AEDD295
:101CD0000C3205D351F8043B40F8043B043AF9D2E6
:101CE000043208D0D2071CBF11F8013B00F8013BB9
:101CF00001D30B8803806046704700BF082A13D3C6
:101D00008B078DD010F003038AD0C3F10403D21ADD
:101D1000DB071CBF11F8013B00F8013B80D331F811
:101D2000023B20F8023B7BE7043AD9D3013A11F891
:101D3000013B00F8013BF9D20B7803704B784370FC
:101D40008B78837060467047F8B5144B1E68054663
:101D50000C461F46124B1B78D3B1022000F0E4F86A
:101D600038B93B689B1BA34216D8A4B100F098FD7C
:101D7000F0E700F108032A4600F1480153F8044B4C
:101D800042F8044B8B42F9D100F0B8FD4020F8BD79
:101D90004FF0FF30F8BD2046F8BD00BF04CDFF1F57
:101DA000FFCCFF1FF8B5184B1D6804460E461F46B2
:101DB000164B1B781BB3012000F0D2F8032806D97C
:101DC0003B685B1BB3421DD800F06AFDF0E700F0F2
:101DD00077FD03460028F3D0204603F1080204F102
:101DE000400150F8044B42F8044B8842F9D140249A
:101DF0001C800120194600F007F92046F8BD4FF07D
:101E0000FF30F8BD0020F8BD04CDFF1FFFCCFF1F41
:101E1000024B1B78DB07FBD5704700BF0100024077
:101E20007FB5174B6A4603F110056E46186859686E
:101E3000144603C40833AB422246F7D1114B1A783B
:101E400012F0020F1D4612D080229A7133229A722C
:101E500003225A7272B60C4C46F001062046B04777
:101E600062B6237813F0700301D0237006E044F6C5
:101E700021632A78D20701D4013BFAD104B070BDA6
:101E8000803400000100024000000240B0F5006F05
:101E900010B5044609D2064B1B78DB0701D4FFF7C7
:101EA000BFFF04F1A054207810BD002010BD00BF7A
:101EB00001000240B0F5006F38B504460D460FD260
:101EC000084B1B78DB0701D4FFF7AAFF04F1A054ED
:101ED0002378AB4204D02570BDE83840FFF798BFA7
:101EE00038BD00BF01000240F0B50C4B0C4C1A7815
:101EF00042F0020504EBC50682F001027060094859
:101F00001A700678002E0CBF8827C82786F00106B5
:101F100047EA0141067044F83510F0BD98CCFF1F28
:101F20000080FF1F00CDFF1F431E012B10B510D8EE
:101F300072B6094A52F8230048B1416842F82310AA
:101F4000064A018832F81340611A22F8131062B66B
:101F500010BD002010BD00BF90CCFF1F14CDFF1F8F
:101F6000013801280AD872B6054B53F820300020FA
:101F700013B101305B68FBE762B670470020704721
:101F8000DCCCFF1F10B572B61A4B1A7812F0080F8E
:101F90001C46194B04D0194A116A81B1926AC2B128
:101FA0006278120704D5154A116C51B1926C92B146
:101FB00062B600221A70BDE8104000F09FBC0422F7
:101FC00000E008220D4901EBC204083060600C48B3
:101FD00008E0052200E00922084901EBC2040830AC
:101FE0006060084841F832001A78013A1A7062B607
:101FF00010BD00BF90340000F6CCFF1F0080FF1F13
:1020000088004000C8004000431E012B30B532D884
:10201000194A400140F01000104472B6174CE25CBF
:10202000032A09D8DFE802F0160218050830022258
:1020300013E00830042210E01148124A50F82340FF
:1020400014B940F8231002E052F82300416042F82E
:1020500023100FE0032200E00522E25410F0080FE5
:1020600001F108030A8843600CBF8823C82343EAB0
:102070000243036062B630BD0080FF1F4CCCFF1FDF
:10208000DCCCFF1FE4CCFF1F2DE9F84FAB4F3B78B2
:10209000DBB213F0040F3A460ED0A949097849B1D2
:1020A000A848047804F0FF0124B10139C9B20170D5
:1020B00001B900BE0421397003F0080000F0FF01EF
:1020C000002800F03682A04BA04C1A78D2B2150935
:1020D0004FEA920840F0B38154F8382004EBC8036B
:1020E000C2F38302013A5B680C2A00F2A581DFE8A3
:1020F00012F07B017B01A301A301A301A301A301B2
:10210000A3017F01A301A301A3010D00904D1A6853
:102110005B686B608F4B44F838302A60DFF8688268
:102120008D4892B200230121B2F5A06FC8F80030AB
:102130002361A361017000F02D8114D8822A00F080
:10214000B88006D8802A40F0F480844C23706370F5
:1021500022E1B2F5817F00F0B98040F202339A4269
:1021600000F0C280E5E0B2F5086F00F09C8008D86E
:10217000A2F5D062012A00F2DC806A88A988784B37
:10218000C6E0B2F5106F40F0D4806D4B6F4EAA7868
:102190001A7006F14009336A1B0603D5706A0838C5
:1021A00000F0ACFB08364E45F5D10026B146DFF80D
:1021B000DCA156F80A0028B1D0F804B000F09EFB6C
:1021C0005846F8E74AF80600664BDFF8C4A1F0501D
:1021D00056F80A0028B1D0F804B000F08FFB58463A
:1021E000F8E7614B4AF80600F050604B23F81900FD
:1021F0005F4B19F80320023A032A08D8DFE802F0FF
:1022000002040204002200E0012203F8092009F17F
:102210000109B9F1020F06F10406C8D1554B00229D
:102220001A7001269A46544A544B3244334412F8E9
:10223000012C9B0012F0080F1A704FEA860925D076
:1022400000F03EFB38B104EB4613083058604C4BAD
:1022500044F8393006E09AF8003044F83900013388
:102260008AF8003000F02CFB49F0010338B104EB90
:10227000C30208305060374A44F8332006E044F87F
:1022800033009AF8003001338AF8003049F0020236
:10229000013649F003090023032E44F8323044F894
:1022A0003930C0D176E0264B2C4C1B7823700B467E
:1022B00073E0AA88022A3CD8284C920023706370ED
:1022C000304B9B5C9E0767D5217065E0AA8802F0C1
:1022D0007F02022A2DDC6B885BBB9100294A0A44ED
:1022E000117821F002010CE0AA8802F07F02022A94
:1022F0001FDC6B88EBB99100224A0A44117841F047
:102300000201117046E033F80C6C964207D00C3392
:1023100053F8084CA3F10C00002CF4D109E033F879
:102320000A6C8E42F3D1120A032A0CBF2378038968
:1023300033E0144B0F221A7053E000BF8020074097
:10234000FFCCFF1F99CCFF1F902007400080FF1F8C
:10235000ECCCFF1FC800400000CDFF1FF7CCFF1FD3
:10236000A034000044CCFF1FE4CCFF1F14CDFF1F9E
:102370004CCCFF1FF6CCFF1F9034000030C801107A
:1023800088004000C020074040CCFF1F90CCFF1FBA
:10239000DCCCFF1F1C4600E00223EE88B34238BFAE
:1023A0001E46402E34BF3546402520462946FFF7BD
:1023B0009BFD761B2C4403D1402D12D1354603E002
:1023C000402E34BF3546402520462946FFF78CFD78
:1023D000761B2C4401D1402D03D1724AC8F800402D
:1023E00016800122704B26E0704B44F8383023E011
:1023F0006F4E3568B5B1DFF8AC81B8F80090B9F12F
:10240000400F34BF4C46402428462146FFF76CFD60
:10241000C4EB09039BB2A8F800300BB9402C00D1E3
:102420002B193360634B1A88B2F5A06F04D10022D8
:102430005A709A78604B1A7001225B4B6CE004EB87
:10244000C806013D736802F00802A3F10800EDB26E
:1024500002F0FF01002A36D000F050FA5748584BDE
:1024600050F82520EAB1516840F8251002F1080122
:102470007160595D03290BD8DFE801F002040608FA
:10248000032104E0022102E0052100E00421595566
:1024900016F0080F12880CBF8823C82343EA0243B2
:1024A00042E05A5D032A07D8DFE802F04040020408
:1024B000002206E0012204E016F0080F0CBF022201
:1024C00003225A5532E054F83820120C23F8082C15
:1024D00022B3DFF81CE123F8061C43F8041C5EF865
:1024E0002530384913B94EF8250002E051F825305F
:1024F0005860354B41F8250033F815100A4423F88D
:10250000152000F0DDF910B10830706006E02F4BA7
:1025100044F838001A7801321A7007E0234B2C4A2D
:1025200016F0080F08BF134644F8383008233B70F4
:10253000ACE5DC0720D51C48254C264D0223037052
:10254000254B1970254B1C609C60254CDC605D6040
:1025500019619961234B0D241C70234CFF232370B8
:102560001370154A117002F80C3C204B9F221A7010
:1025700001230370BDE8F88F180604D519490D2012
:10258000087080211170990705D517490878C0B2E5
:10259000087002211170DB0644BF10231370BDE8E0
:1025A000F88F00BFF4CCFF1F94200740C800400004
:1025B00040CCFF1FECCCFF1F98200740DCCCFF1F56
:1025C0004CCCFF1F44CCFF1F14CDFF1FF6CCFF1FC8
:1025D0008800400050CCFF1F98CCFF1F0080FF1FD9
:1025E0009CCCFF1FC0200740882007408420074064
:1025F00090CCFF1F08B500F03DF800221A4B0021D7
:10260000D15098180832482A4160F7D1174A10680B
:1026100040F48020106002F528326832C3F30720AE
:102620001070C3F307401B0E10751376FF2302F8DA
:102630001C3C02F8143C02F88C3C012302F8083CD4
:1026400082F8641002F8183C094B70226FF4507144
:102650001A700B444FF400721A6003F1C04303F583
:10266000C82310221A7008BD0080FF1F3480044068
:1026700049E400E01FB572B6154B70221A70154A76
:10268000412111700F2102F8011C80221A701A7862
:102690001206FCD5104B186862B6104B984298BFD2
:1026A0000A2301AC98BF584321460A2200F07CF966
:1026B0000023E15C0A4A29B102EB430001330A2BF3
:1026C0004180F6D101335B00137004B010BD00BF30
:1026D0000000024007000240080002407F96980078
:1026E0000888FF1F044B054900221A600A60044A4B
:1026F000106010221A60704714D0034004D00340C9
:1027000000D00340212810B518D80D4A52F83030B7
:1027100093F880423CB1012211B183F8802010BDB2
:1027200083F8002110BD02EBC00043681A6811B1A4
:1027300042F0030201E022F002021A6010BD00BF65
:1027400000350000212806D8044B53F8303093F8A8
:102750000002C0B270470020704700BF0035000083
:10276000212816D80B4A02EBC00301295B6852F8F6
:10277000302004D182F880124FF4A27208E00020C9
:1027800082F8800211B94FF4807201E040F2031226
:102790001A6070470035000072B60C4B0C491A687D
:1027A0000C4B1B68096862B6490102D5322A88BF02
:1027B0000133C2F58C32482102F23F12B2FBF1F232
:1027C0004FF47A7000FB0320704700BF18E000E070
:1027D00004ED00E004CDFF1F38B50446FFF7DCFF31
:1027E000054624B938BD013C0AD005F57A75FFF7D6
:1027F000D3FF401BB0F57A7FF5D200F051F8F6E731
:1028000038BDFFFF1F4B4FF4000210B51A604FF0A8
:1028100080721A604FF000721A604FF080621A6086
:102820004FF000621A60184B184A194C002048F605
:10283000FF711860596028231360936013619361DE
:1028400013629362136393630922226004F5805438
:10285000043420606160A360236144F8042C04F513
:10286000FE2420600B4801600B490B608B600B4B12
:102870001A6000F0B7F8FA20FFF7AEFFBDE810408D
:10288000FFF7B8BE08E100E0048003400C8003407D
:102890000080034008800B400C800B4000800B4000
:1028A000024B1A7802B91A70704700BF08CDFF1F9B
:1028B00008B5FDF785FEFEF7DDF8FFF7F1FFFAE753
:1028C00072B60C4A1168B1FA81F30B2B02D962B6C9
:1028D000002070474FF00040D84021EA000111600D
:1028E00062B6054948225343C8180022CA504260C4
:1028F000704700BF2088FF1F0084FF1F0C4B482239
:10290000C31AB3FBF2F30B2B11D80A4A127822B187
:10291000094A12780AB1FFF735BB72B6074A4FF081
:10292000004121FA03F311681943116062B6704740
:102930000084FF1FF6CCFF1FFFCCFF1F2088FF1F66
:10294000024B1A6801321A60704700BF04CDFF1FA6
:1029500008B50B4C2368580301D5FFF795FB236896
:10296000590501D500F00EF823681A0501D500F0CD
:1029700009F82368DB04ECD500F004F8E9E700BFB0
:102980003480044008B5FFF7E3FFFFFF014B10223E
:102990001A80704700200540024A136818441060EE
:1029A000184670472488FF1F10B50023B0FBF2F4CF
:1029B00002FB1400092894BF30303730C0B2C8542D
:1029C00020460CB10133F1E7CA18547022469A42EE
:1029D00006DA885CCC5C8C54C8540132013BF6E7C3
:1029E000084610BD10B5204B2048214960221A70BE
:1029F000E1225A701F4B204A1C78204B082C01D131
:102A0000012402E00A2C03D119240460132005E0FC
:102A10000C2C0CBF15243D240460122008601460A7
:102A20001860174B17491B78174A03B101230B6035
:102A30001360164B164A1978164B012901D88021CC
:102A40000BE0042901D8842107E0082901D8852159
:102A500003E0102994BF86218721116019600E4B75
:102A600001221A7010BD00BF0040074008B00340AB
:102A70000CB003402888FF1F08B00B400CB00B407F
:102A80000ACDFF1F20B0034020B00B402988FF1F54
:102A900024B0034024B00B4009CDFF1F0346084675
:102AA000194600F001B8FFFF70B5064C06460D460A
:102AB00013462CB131462A460220AFF3008070BD88
:102AC000204670BD0000000070B50E4B0E4DED1A93
:102AD000AD1000241E46AC4204D056F82420904786
:102AE0000134F8E700F096FD084D094BED1AAD10E2
:102AF00000241E46AC4204D056F8242090470134EE
:102B0000F8E770BD3036000030360000383600007F
:102B100030360000024B0146186800F057B800BF7D
:102B20008C88FF1F024B0146186800F00BB800BFED
:102B30008C88FF1F02440346934202D003F8011B16
:102B4000FAE7704730B500293CD051F8042C0B1F30
:102B50001D49002AB8BF9B180A680C4612B95A6072
:102B60000B6030BD93420DD219685818904203D1C2
:102B70005A581144426819605A60236030BD994226
:102B800003D80A4651680029F9D1146815199D42E5
:102B90000AD11B682344D0188842136012D10868F8
:102BA000034413604B680CE002D90C23036030BD72
:102BB00018681C188C4203D10C68496820441860BE
:102BC0005960536030BD00BF10CDFF1F70B5CD1CE4
:102BD00025F0030508350C2D38BF0C25002D0646C1
:102BE0003FDB8D423DD3214B1C6818462146A1B1E5
:102BF0000B685B1B0ED40B2B03D90B60CC18CD508C
:102C00001FE08C4202D1626802601AE04B68636088
:102C10000C4616E00C464968E9E7154C23681BB9D9
:102C2000304600F027F820602946304600F022F8B0
:102C3000431C014615D0C41C24F0030484420AD16D
:102C4000256004F10B00231D20F00700C31A0BD0F0
:102C50005A42E25070BD3046611A00F00BF8013064
:102C6000EED10C233360002070BD00BF10CDFF1FDC
:102C70000CCDFF1F38B5064C0023054608462360DF
:102C8000FFF78AFE431C02D1236803B12B6038BDD5
:102C900018CDFF1F57768488C3EBE6394989B81DE4
:102CA0007EE93BDA867F6D816474D5AA38B26CD632
:102CB0004CE67E65000000000000000000000000FF
:102CC0000000000000000000000000000000000004
:102CD000000000004572726F72206669726D776144
:102CE0007265206C6F6164206661696C6564005375
:102CF00055434345535346554C4C59204C4F414442
:102D00004544204657004572726F72206669726DA5
:102D1000776172652066696C6520746F6F206C61E5
:102D2000726765206F72206F7574206F66206F72F6
:102D300064657200524541445920464F52204E4529
:102D4000585420424C4F434B005245434549564549
:102D500044204F4B465755504441544500457272EC
:102D60006F72206669726D776172652066696C6545
:102D700020626C6F636B20746F6F206C617267658B
:102D8000004572726F72206669726D77617265209C
:102D90007369676E617475726520766572696679AC
:102DA000206661696C656400554E4C4F434B454449
:102DB00020424F4F544C4F41444552763100FFFF63
:102DC0001AD5000000000000258F00000000000060
:102DD000602D00000000000056C900000000000047
:102DE000B2A70000000000002595000000000000D0
:102DF00060C70000000000002C6900000000000017
:102E00005CDC000000000000D6FD000000000000B7
:102E100031E2000000000000A4C00000000000003B
:102E2000FE530000000000006ECD00000000000016
:102E3000D3360000000000006921000000000000FF
:102E4000B0A00000000000000E4A000000000000DA
:102E5000271B000000000000EEC40000000000007E
:102E600078E40000000000002FAD0000000000002A
:102E70000618000000000000432F000000000000C2
:102E8000A7D7000000000000FB3D0000000000008C
:102E900099000000000000004D2B00000000000021
:102EA0000BDF000000000000C14F00000000000028
:102EB0008024000000000000832B000000000000C0
:102EC0000100000000000000000000000000000001
:102ED00000000000000000000000000000000000F2
:102EE00000000000000000000000000000000000E2
:102EF00000000000000000000000000000000000D2
:102F000000000000000000000000000000000000C1
:102F100000000000000000000000000000000000B1
:102F200000000000000000000000000000000000A1
:102F30000000000000000000000000000000000091
:102F400058660000000000006666000000000000F7
:102F500066660000000000006666000000000000D9
:102F600066660000000000006666000000000000C9
:102F700066660000000000006666000000000000B9
:102F800066660000000000006666000000000000A9
:102F90006666000000000000666600000000000099
:102FA0006666000000000000666600000000000089
:102FB0006666000000000000666600000000000079
:102FC0006A09E667F3BCC908BB67AE8584CAA73B3C
:102FD0003C6EF372FE94F82BA54FF53A5F1D36F167
:102FE000510E527FADE682D19B05688C2B3E6C1F43
:102FF0001F83D9ABFB41BD6B5BE0CD19137E2179FB
:1030000059F1000000000000B2260000000000009E
:10301000949B000000000000D6EB000000000000C0
:1030200056B1000000000000838200000000000094
:103030009A14000000000000E00000000000000002
:1030400030D1000000000000F3EE0000000000009E
:10305000F2800000000000008E1900000000000057
:10306000E7FC000000000000DF5600000000000048
:10307000DCD9000000000000062400000000000071
:10308000A3780000000000005913000000000000B9
:10309000CA4D000000000000EB75000000000000B9
:1030A000ABD800000000000041410000000000001B
:1030B0004D0A000000000000700000000000000049
:1030C00098E8000000000000797700000000000090
:1030D0007940000000000000C78C000000000000E4
:1030E00073FE0000000000006F2B000000000000D5
:1030F000EE6C000000000000035200000000000021
:1031000022AE28D7982F8A42CD65EF23914437719C
:103110002F3B4DECCFFBC0B5BCDB8981A5DBB5E90E
:1031200038B548F35BC2563919D005B6F111F159DB
:103130009B4F19AFA4823F9218816DDAD55E1CAB0C
:10314000420203A398AA07D8BE6F7045015B8312A1
:103150008CB2E44EBE853124E2B4FFD5C37D0C555C
:103160006F897BF2745DBE72B196163BFEB1DE8054
:103170003512C725A706DC9B942669CF74F19BC145
:10318000D24AF19EC1699BE4E3254F388647BEEFE2
:10319000B5D58C8BC69DC10F659CAC77CCA10C249A
:1031A00075022B596F2CE92D83E4A66EAA84744A0C
:1031B000D4FB41BDDCA9B05CB5531183DA88F97644
:1031C000ABDF66EE52513E981032B42D6DC631A879
:1031D0003F21FB98C82703B0E40EEFBEC77F59BF5D
:1031E000C28FA83DF30BE0C625A70A934791A7D548
:1031F0006F8203E05163CA06706E0E0A67292914B4
:10320000FC2FD246850AB72726C9265C38211B2EFB
:10321000ED2AC45AFC6D2C4DDFB3959D130D385328
:10322000DE63AF8B54730A65A8B2773CBB0A6A763B
:10323000E6AEED472EC9C2813B358214852C7292D1
:103240006403F14CA1E8BFA2013042BC4B661AA84E
:103250009197F8D0708B4BC230BE5406A3516CC707
:103260001852EFD619E892D110A96555240699D6BF
:103270002A20715785350EF4B8D1BB3270A06A1080
:10328000C8D0D2B816C1A41953AB4151086C371E2F
:1032900099EB8EDF4C774827A8489BE1B5BCB0344A
:1032A000635AC9C5B30C1C39CB8A41E34AAAD84E2C
:1032B00073E363774FCA9C5BA3B8B2D6F36F2E68F3
:1032C000FCB2EF5DEE828F74602F17436F63A578B9
:1032D00072ABF0A11478C884EC39641A0802C78C68
:1032E000281E6323FAFFBE90E9BD82DEEB6C50A47A
:1032F0001579C6B2F7A3F9BE2B5372E3F27871C603
:103300009C6126EACE3E27CA07C2C021C7B886D133
:103310001EEBE0CDD67DDAEA78D16EEE7F4F7DF5FB
:10332000BA6F1772AA67F006A698C8A2C57D630A8D
:10333000AE0DF9BE04983F111B471C13350B711BD2
:10334000847D0423F577DB289324C7407BABCA3206
:10335000BCBEC9150ABE9E3C4C0D109CC4671D43E3
:10336000B6423ECBBED4C54C2A7E65FC9C297F5913
:10337000ECFAD63AAB6FCB5F1758474A8C19446CBE
:10338000ED00000000000000D3000000000000007D
:10339000F5000000000000005C00000000000000DC
:1033A0001A000000000000006300000000000000A0
:1033B00012000000000000005800000000000000A3
:1033C000D6000000000000009C000000000000008B
:1033D000F700000000000000A20000000000000054
:1033E000DE00000000000000F90000000000000006
:1033F000DE000000000000001400000000000000DB
:1034000000000000000000000000000000000000BC
:1034100000000000000000000000000000000000AC
:10342000000000000000000000000000000000009C
:10343000000000000000000000000000000000008C
:10344000000000000000000000000000000000007C
:10345000000000000000000000000000000000006C
:10346000000000000000000000000000000000005C
:10347000000000000000000010000000000000003C
:103480006FF07F030370037813F0800FFBD0704759
:103490001519FFFF000100007087FF1F12000000D8
:1034A00000020000A487FF1F290000000022000086
:1034B000CD87FF1F1C00000000210000B687FF1F02
:1034C00009000000000300000488FF1F0000000046
:1034D000010309048287FF1F0000000002030904A2
:1034E000EA87FF1F00000000030309040888FF1F8C
:1034F00000000000000000000000000000000000CC
:103500004008FE4340A004404408FE4344A0044059
:103510000018FE4300C004403000FE4330900440D9
:103520003400FE43349004401C18FE431CC0044089
:103530001018FE4310C004400818FE4308C00440A1
:103540000C18FE430CC004400C10FE430CB00440A9
:103550001010FE4310B004401810FE4318B0044091
:103560001C10FE431CB004401410FE4314B0044071
:103570000418FE4304C004400010FE4300B00440A1
:103580000008FE4300A004400408FE4304A00440D9
:103590000C08FE430CA004400808FE4308A00440A9
:1035A0001418FE4314C004401818FE4318C0044009
:1035B0000410FE4304B004400810FE4308B0044069
:1035C0001400FE43149004404C08FE434CA00440F9
:1035D0000420FE4304D004402410FE4324B00440E1
:1035E0002010FE4320B004402810FE4328B00440C1
:1035F0002C10FE432CB004400020FE4300D00440B9
:103600004808FE4348A004401000FE4310900440C8
:103610004300FFFFF8B500BFF8BC08BC9E467047EA
:1036200001B40248844601BC604700BF6187FF1FA8
:0836300035040000C50A00008A
:103638008023037003781B06FCD570470000000048
:103648001201100100000040000001B00001010259
:103658000301220342004C00410043004B002000BC
:103668005600410055004C00540020004C00410019
:103678004200530009022900010100C03209040078
:10368800000203000000092111010001221C0007AB
:103698000581034000010705020340000106ABFF56
:1036A8000A0002A1017508150026FF0095400901CE
:1036B8008102954009029102C0001A0342004F009E
:1036C8004F0054004C004F00410044004500520098
:1036D80056003100040309040C0300000000000038
:1036E80000000000000000000000000000000000D2
:1036F800FFFFFFFF1CCDFF1F0A04000000000000B1
:1037080000000000000000000000000000000000B1
:10371800000000000000000000000000103600005B
:103728000000000000000000000000000000000091
:103738000000000000000000000000000000000081
:103748000000000000000000000000000000000071
:103758000000000000000000000000002C88FF1F8F
:00000001FF
